:100000000C942A000C941A010C943C000C943C00B3
:100010000C943C000C943C000C943C000C943C0070
:100020000C943C000C943C000C943C000C943C0060
:100030000C943C000C943C000C943C000C943C0050
:100040000C943C000C943C000C943C000C943C0040
:100050000C943C0011241FBECFE5D8E0DEBFCDBF1D
:1000600020E0A0E6B0E001C01D92A336B207E1F7A0
:100070000E94B0010C94CE020C94000012BE83B713
:10008000816083BF109262001092610080916100D4
:10009000909162008D349C4480F408B600FEFDCF40
:1000A00088B7816088BF809161009091620001965D
:1000B0009093620080936100E9CF08950F931F939E
:1000C000CF93DF93D82F162FC42F022F12BE83B7E2
:1000D000816083BF109262001092610080ED97E012
:1000E00020916100309162002D343C44E8F408B660
:1000F00000FEFDCF28B7216028BF2091610030911C
:1001000062002F5F3F4F30936200209361000197A0
:1001100039F7612F8D2F0E94AE01CC23F9F2602FA9
:100120008C2F0E94AE01DACFDF91CF911F910F91FA
:1001300008958FB780688FBF85B7816085BF85B709
:10014000826085BF8BB780648BBF13BE12BE60E038
:1001500081E40E94A50161E081E40E94A50162E0C2
:1001600081E40E94A50160E082E40E94A50161E0B3
:1001700082E40E94A50162E082E40E94A50162E09F
:1001800084E40C94A2011092600060E082E40E947A
:10019000A80180916000811104C062E081E40E94A6
:1001A000A80180916000811102C00E943E008091F0
:1001B0006000811104C062E081E40E94AB01809183
:1001C0006000811106C020E040E061E081E40E940F
:1001D0005E0080916000811104C061E081E40E94B2
:1001E000AB0180916000811104C060E081E40E9455
:1001F000A80180916000811102C00E943E008091A0
:100200006000811104C060E081E40E94AB01809134
:100210006000811106C020E040E061E081E40E94BE
:100220005E00809160008111AECF61E081E40E94A8
:10023000AB01A9CF1F920F920FB60F9211242F93EB
:100240003F934F935F936F937F938F939F93AF935E
:10025000BF93EF93FF93CF93DF931F92CDB7DEB79A
:1002600081E080936000AE014F5F5F4F60E081E40A
:100270000E94A60289818823D9F060E082E40E946E
:10028000AB0162E082E40E94A8010E943E0060E0AF
:1002900081E40E94AB0121E042E461E081E40E943C
:1002A0005E0061E082E40E94AB0161E081E430C065
:1002B00062E081E40E94AB0121E042E461E081E47C
:1002C0000E945E0061E081E40E94AB0161E082E493
:1002D0000E94AB0160E081E40E94A80160E082E43A
:1002E0000E94AB0162E082E40E94A8010E943E00ED
:1002F00060E081E40E94AB0121E042E461E081E43E
:100300000E945E0061E081E40E94AB0161E082E452
:100310000E94AB0162E082E40E94AB010F90DF918A
:10032000CF91FF91EF91BF91AF919F918F917F916D
:100330006F915F914F913F912F910F900FBE0F9052
:100340001F90189540E00C94BC0141E00C94BC0156
:1003500041E00C941A0240E00C941A020C947802CA
:1003600041E061E086E50E94BC010E9499000E9484
:10037000C30080E090E00895683008F055C08234F2
:1003800011F118F4813431F051C08334E1F0843438
:1003900099F14CC041110AC02AB381E090E001C03C
:1003A000880F6A95EAF7809582230BC0413009F0E7
:1003B0003FC02AB381E090E001C0880F6A95EAF758
:1003C000822B8ABB0CC041110CC027B381E090E0A6
:1003D00001C0880F6A95EAF78095822387BB80E089
:1003E0000895413029F527B381E090E001C0880FDE
:1003F0006A95EAF7822BF2CF41110AC021B381E05E
:1004000090E001C0880F6A95EAF7809582230AC0C0
:10041000413071F421B381E090E001C0880F6A950A
:10042000EAF7822B81BBDBCF81E0089582E008955B
:1004300083E00895683008F055C0823411F118F453
:10044000813431F051C08334E1F0843499F14CC0EF
:1004500041110AC02BB381E090E001C0880F6A957A
:10046000EAF7809582230BC0413009F03FC02BB3DF
:1004700081E090E001C0880F6A95EAF7822B8BBB80
:100480000CC041110CC028B381E090E001C0880F7E
:100490006A95EAF78095822388BB80E00895413011
:1004A00029F528B381E090E001C0880F6A95EAF74A
:1004B000822BF2CF41110AC022B381E090E001C04B
:1004C000880F6A95EAF7809582230AC0413071F45B
:1004D00022B381E090E001C0880F6A95EAF7822B91
:1004E00082BBDBCF81E0089582E0089584E0089527
:1004F000683040F58234D9F060F4813429F52BB3AB
:1005000081E090E001C0880F6A95EAF782278BBBF3
:1005100017C0833461F08434B9F422B381E090E0F1
:1005200001C0880F6A95EAF7822782BB09C028B309
:1005300081E090E001C0880F6A95EAF7822788BBC6
:1005400080E0089581E0089582E00895FA0168301E
:1005500008F5823459F020F48134F1F429B307C04E
:10056000833421F08434C1F420B301C026B381E088
:1005700090E0062E02C0880F991F0A94E2F730E03F
:100580008223932302C0959587956A95E2F780832D
:1005900080E0089581E0089582E00895F894FFCF07
:00000001FF
