:100000000C942A000C941E010C943C000C943C00AF
:100010000C943C000C943C000C943C000C943C0070
:100020000C943C000C943C000C943C000C943C0060
:100030000C943C000C943C000C943C000C943C0050
:100040000C943C000C943C000C943C000C943C0040
:100050000C943C0011241FBECFE5D8E0DEBFCDBF1D
:1000600020E0A0E6B0E001C01D92A336B207E1F7A0
:100070000E94BF010C94EA030C94000012BE83B7E7
:10008000816083BF10926200109261000FC008B6B9
:1000900000FEFDCF88B7816088BF8091610090919C
:1000A00062000196909362008093610080916100EC
:1000B000909162008D349C4450F308950F931F93E8
:1000C000CF93DF93182FD62FC42F022F12BE83B7E2
:1000D000816083BF10926200109261001FC008B659
:1000E00000FEFDCF88B7816088BF8091610090914C
:1000F0006200019690936200809361002F5F3F4FF2
:10010000203D47E0340761F46D2F812F0E94BC0130
:10011000CC2321F0602F8C2F0E94BC0120E030E026
:1001200080916100909162008D349C44C0F2DF9117
:10013000CF911F910F9108958FB780688FBF85B7BA
:10014000816085BF85B7826085BF8BB780648BBFB8
:1001500013BE12BE60E081E40E94B00161E081E460
:100160000E94B00162E081E40E94B00160E082E49C
:100170000E94B00161E082E40E94B00162E082E48A
:100180000E94B00162E084E40E94AC0108951092E4
:10019000600060E082E40E94B401809160008111FF
:1001A00004C062E081E40E94B4018091600081118A
:1001B00002C00E943E0080916000811104C062E094
:1001C00081E40E94B80180916000811106C020E0A6
:1001D00040E061E081E40E945E0080916000811156
:1001E00004C061E081E40E94B80180916000811147
:1001F00004C060E081E40E94B4018091600081113C
:1002000002C00E943E0080916000811104C060E045
:1002100081E40E94B80180916000811106C020E055
:1002200040E061E081E40E945E0080916000811105
:10023000AECF61E081E40E94B801A9CF1F920F9276
:100240000FB60F9211242F933F934F935F936F93A9
:100250007F938F939F93AF93BF93EF93FF93CF932E
:10026000DF931F92CDB7DEB781E080936000AE01CF
:100270004F5F5F4F60E081E40E946F0389818823B4
:1002800009F160E082E40E94B80162E082E40E9429
:10029000B4010E943E0060E081E40E94B80121E0C8
:1002A00042E461E081E40E945E0061E082E40E9439
:1002B000B80161E081E40E94B80162E082E40E943A
:1002C000B80136C062E081E40E94B80121E042E456
:1002D00061E081E40E945E0061E081E40E94B80177
:1002E00061E082E40E94B80160E081E40E94B40110
:1002F00060E082E40E94B80162E082E40E94B401FE
:100300000E943E0060E081E40E94B80121E042E4E6
:1003100061E081E40E945E0061E081E40E94B80136
:1003200061E082E40E94B80162E082E40E94B801C8
:100330000F90DF91CF91FF91EF91BF91AF919F917E
:100340008F917F916F915F914F913F912F910F907E
:100350000FBE0F901F90189540E00E94E101089594
:1003600041E00E94E101089541E00E948102089568
:1003700040E00E94810208950E94210308950E9496
:100380009C000E94C70080E090E0089511C095B3E2
:100390009E7F95BB94B321E030E0082E02C0220F6F
:1003A000331F0A94E2F7922B94BB95B3292B25BBFC
:1003B0008111EDCF84B3816084BB85B3816085BB3F
:1003C0000895683008F099C0823469F118F48134D6
:1003D00041F08FC0833409F448C0843409F467C005
:1003E00088C041110CC02AB381E090E002C0880FA0
:1003F000991F6A95E2F7809582238ABB10C041302D
:1004000059F42AB381E090E002C0880F991F6A95E1
:10041000E2F7822B8ABB03C083E00E94C60180E022
:100420000E94C601089541110CC027B381E090E0FD
:1004300002C0880F991F6A95E2F78095822387BBD7
:1004400010C0413059F427B381E090E002C0880F1A
:10045000991F6A95E2F7822B87BB03C083E00E9455
:10046000C60180E00E94C601089541110CC024B36A
:1004700081E090E002C0880F991F6A95E2F78095AD
:10048000822384BB10C0413059F424B381E090E052
:1004900002C0880F991F6A95E2F7822B84BB03C0C4
:1004A00083E00E94C60180E00E94C60108954111C8
:1004B0000CC021B381E090E002C0880F991F6A95BB
:1004C000E2F78095822381BB10C0413059F421B3FB
:1004D00081E090E002C0880F991F6A95E2F7822BB5
:1004E00081BB03C083E00E94C60180E00E94C60178
:1004F000089582E00E94C601089581E00E94C6012D
:100500000895683008F099C0823469F118F4813494
:1005100041F08FC0833409F448C0843409F467C0C3
:1005200088C041110CC02BB381E090E002C0880F5D
:10053000991F6A95E2F7809582238BBB10C04130EA
:1005400059F42BB381E090E002C0880F991F6A959F
:10055000E2F7822B8BBB03C084E00E94C60180E0DF
:100560000E94C601089541110CC028B381E090E0BB
:1005700002C0880F991F6A95E2F78095822388BB95
:1005800010C0413059F428B381E090E002C0880FD8
:10059000991F6A95E2F7822B88BB03C084E00E9412
:1005A000C60180E00E94C601089541110CC025B328
:1005B00081E090E002C0880F991F6A95E2F780956C
:1005C000822385BB10C0413059F425B381E090E00F
:1005D00002C0880F991F6A95E2F7822B85BB03C082
:1005E00084E00E94C60180E00E94C6010895411186
:1005F0000CC022B381E090E002C0880F991F6A9579
:10060000E2F78095822382BB10C0413059F422B3B7
:1006100081E090E002C0880F991F6A95E2F7822B73
:1006200082BB03C084E00E94C60180E00E94C60134
:10063000089582E00E94C601089581E00E94C601EB
:100640000895683008F047C08234B9F018F4813456
:1006500031F03DC08334F9F0843459F138C02BB304
:1006600081E090E002C0880F991F6A95E2F7822727
:100670008BBB80E00E94C601089528B381E090E022
:1006800002C0880F991F6A95E2F7822788BB80E035
:100690000E94C601089525B381E090E002C0880F52
:1006A000991F6A95E2F7822785BB80E00E94C60108
:1006B000089522B381E090E002C0880F991F6A95E7
:1006C000E2F7822782BB80E00E94C601089582E0A3
:1006D0000E94C601089581E00E94C6010895683015
:1006E00008F074C0823419F118F4813439F06AC00A
:1006F0008334B1F1843409F44CC064C079B381E02F
:1007000090E09C01062E02C0220F331F0A94E2F7EC
:10071000872F90E08223932302C0959587956A9551
:10072000E2F7FA01808380E00E94C601089576B363
:1007300081E090E09C01062E02C0220F331F0A9434
:10074000E2F7872F90E08223932302C09595879547
:100750006A95E2F7FA01808380E00E94C60108955D
:1007600073B381E090E09C01062E02C0220F331F7C
:100770000A94E2F7872F90E08223932302C0959595
:1007800087956A95E2F7FA01808380E00E94C601AE
:10079000089570B381E090E09C01062E02C0220F04
:1007A000331F0A94E2F7872F90E08223932302C03D
:1007B000959587956A95E2F7FA01808380E00E941B
:1007C000C601089582E00E94C601089581E00E945A
:0807D000C6010895F894FFCF63
:00000001FF
